{
  "_format": "hh-sol-artifact-1",
  "contractName": "ValidationLogic",
  "sourceName": "contracts/protocol/libraries/logic/ValidationLogic.sol",
  "abi": [
    {
      "inputs": [],
      "name": "REBALANCE_UP_LIQUIDITY_RATE_THRESHOLD",
      "outputs": [
        {
          "internalType": "uint256",
          "name": "",
          "type": "uint256"
        }
      ],
      "stateMutability": "view",
      "type": "function"
    },
    {
      "inputs": [],
      "name": "REBALANCE_UP_USAGE_RATIO_THRESHOLD",
      "outputs": [
        {
          "internalType": "uint256",
          "name": "",
          "type": "uint256"
        }
      ],
      "stateMutability": "view",
      "type": "function"
    }
  ],
  "bytecode": "0x61294e610026600b82828239805160001a60731461001957fe5b30600052607381538281f3fe730000000000000000000000000000000000000000301460806040526004361061009d5760003560e01c8063721a92f911610070578063721a92f9146100fb578063a8695b1d1461010e578063abfcc86a14610121578063d09db04a14610129578063fa0c21491461013c5761009d565b80630eca322b146100a2578063548cad09146100b75780635494eb8a146100ca5780635fa297e5146100e8575b600080fd5b6100b56100b036600461257e565b61014f565b005b6100b56100c53660046124d6565b610217565b6100d261050d565b6040516100df91906127cc565b60405180910390f35b6100b56100f636600461246c565b61051d565b6100b561010936600461233a565b6106c2565b6100b561011c36600461253d565b610d1b565b6100d2610fe4565b6100b56101373660046123de565b610fea565b6100b561014a36600461259f565b611188565b60008061015b846112ce565b50506040805180820190915260018152603160f81b60208201529193509150836101a15760405162461bcd60e51b815260040161019891906126f5565b60405180910390fd5b506040805180820190915260018152601960f91b6020820152826101d85760405162461bcd60e51b815260040161019891906126f5565b506040805180820190915260018152603360f81b602082015281156102105760405162461bcd60e51b815260040161019891906126f5565b5050505050565b6000610222866112ce565b505050905080604051806040016040528060018152602001601960f91b815250906102605760405162461bcd60e51b815260040161019891906126f5565b506000610356610351856001600160a01b03166318160ddd6040518163ffffffff1660e01b815260040160206040518083038186803b1580156102a257600080fd5b505afa1580156102b6573d6000803e3d6000fd5b505050506040513d601f19601f820116820180604052508101906102da91906125fd565b876001600160a01b03166318160ddd6040518163ffffffff1660e01b815260040160206040518083038186803b15801561031357600080fd5b505afa158015610327573d6000803e3d6000fd5b505050506040513d601f19601f8201168201806040525081019061034b91906125fd565b90611306565b611334565b905060006103d9876001600160a01b03166370a08231866040518263ffffffff1660e01b81526004016103899190612660565b60206040518083038186803b1580156103a157600080fd5b505afa1580156103b5573d6000803e3d6000fd5b505050506040513d601f19601f8201168201806040525081019061035191906125fd565b9050600082156103fc576103f76103f08385611306565b8490611386565b6103ff565b60005b60028a015460078b0154604080516380031e3760e01b815290519394506fffffffffffffffffffffffffffffffff909216926000926001600160a01b03909216916380031e37916004808301926020929190829003018186803b15801561046557600080fd5b505afa158015610479573d6000803e3d6000fd5b505050506040513d601f19601f8201168201806040525081019061049d91906125fd565b90506b0311d253316c79d37600000083101580156104c657506104c281610fa0611431565b8211155b60405180604001604052806002815260200161191960f11b815250906104ff5760405162461bcd60e51b815260040161019891906126f5565b505050505050505050505050565b6b0311d253316c79d37600000081565b6004808901546040516370a0823160e01b81526000926001600160a01b03909216916370a082319161055191339101612660565b60206040518083038186803b15801561056957600080fd5b505afa15801561057d573d6000803e3d6000fd5b505050506040513d601f19601f820116820180604052508101906105a191906125fd565b90506000811160405180604001604052806002815260200161313960f01b815250906105e05760405162461bcd60e51b815260040161019891906126f5565b50868061067d5750604051633985c10960e21b815273__$52a8a86ab43135662ff256bbc95497e8e3$__9063e61704249061062d908b90339086908c908c908c908c908c90600401612674565b60206040518083038186803b15801561064557600080fd5b505af4158015610659573d6000803e3d6000fd5b505050506040513d601f19601f8201168201806040525081019061067d9190612450565b60405180604001604052806002815260200161032360f41b815250906106b65760405162461bcd60e51b815260040161019891906126f5565b50505050505050505050565b6106ca612222565b6106d38c6112ce565b151561014085015215156101208401521515610100830152151560e082018190526040805180820190915260018152601960f91b60208201529061072a5760405162461bcd60e51b815260040161019891906126f5565b5080610100015115604051806040016040528060018152602001603360f81b8152509061076a5760405162461bcd60e51b815260040161019891906126f5565b506040805180820190915260018152603160f81b60208201528a6107a15760405162461bcd60e51b815260040161019891906126f5565b50806101200151604051806040016040528060018152602001603760f81b815250906107e05760405162461bcd60e51b815260040161019891906126f5565b5087600214806107f05750876001145b604051806040016040528060018152602001600760fb1b815250906108285760405162461bcd60e51b815260040161019891906126f5565b506040805160608101909152610873908c9088908881602081018260028282826020028201915b81548152602001906001019080831161084f575050505050815250508787876114a3565b60c08601526020808601919091529084526080840191909152606083018290526040805180820190915260018152603960f81b91810191909152906108cb5760405162461bcd60e51b815260040161019891906126f5565b50670de0b6b3a76400008160c001511160405180604001604052806002815260200161031360f41b815250906109145760405162461bcd60e51b815260040161019891906126f5565b5061093b6040518060600160405280602f81526020016128b5602f91398260400151611d56565b805160808201516109579190610951908c611306565b90611d9f565b8160400181815250506109866040518060600160405280603581526020016128e4603591398260400151611d56565b6109ac6040518060600160405280602c815260200161281c602c91398260600151611d56565b80606001518160400151111560405180604001604052806002815260200161313160f01b815250906109f15760405162461bcd60e51b815260040161019891906126f5565b506001881415610d0c5780610140015160405180604001604052806002815260200161189960f11b81525090610a3a5760405162461bcd60e51b815260040161019891906126f5565b5060078c0154604080516060810191829052610a9692600160a01b900460ff1691889082906020820190839060029082845b815481526020019060010190808311610a6c57505050505081525050611e2d90919063ffffffff16565b1580610aa85750610aa68c611ea7565b155b80610b3257506004808d01546040516370a0823160e01b81526001600160a01b03909116916370a0823191610adf918f9101612660565b60206040518083038186803b158015610af757600080fd5b505afa158015610b0b573d6000803e3d6000fd5b505050506040513d601f19601f82011682018060405250810190610b2f91906125fd565b8a115b60405180604001604052806002815260200161313360f01b81525090610b6b5760405162461bcd60e51b815260040161019891906126f5565b50610b9b6040518060600160405280602681526020016128486026913960088e01546001600160a01b0316611eaf565b610bda6040518060400160405280601781526020017f76616c6964617465426f72726f773a61737365743a25730000000000000000008152508e611eaf565b8c6001600160a01b03166370a082318d60080160009054906101000a90046001600160a01b03166040518263ffffffff1660e01b8152600401610c1d9190612660565b60206040518083038186803b158015610c3557600080fd5b505afa158015610c49573d6000803e3d6000fd5b505050506040513d601f19601f82011682018060405250810190610c6d91906125fd565b60a082015260408051606081019091526024808252610c99919061286e60208301398260a00151611d56565b60a0810151600090610cab9089611431565b9050610ccf6040518060600160405280602381526020016127f96023913982611d56565b6040805180820190915260028152610c4d60f21b6020820152818c1115610d095760405162461bcd60e51b815260040161019891906126f5565b50505b50505050505050505050505050565b60008080610d28886112ce565b9350509250925082604051806040016040528060018152602001601960f91b81525090610d685760405162461bcd60e51b815260040161019891906126f5565b506040805180820190915260018152603360f81b60208201528215610da05760405162461bcd60e51b815260040161019891906126f5565b506001846002811115610daf57fe5b1415610df257604080518082019091526002815261313760f01b602082015286610dec5760405162461bcd60e51b815260040161019891906126f5565b50610fda565b6002846002811115610e0057fe5b1415610fab57604080518082019091526002815261062760f31b602082015285610e3d5760405162461bcd60e51b815260040161019891906126f5565b50604080518082019091526002815261189960f11b602082015281610e755760405162461bcd60e51b815260040161019891906126f5565b50600788015460408051606081018083528a5460208301908152610ecd94600160a01b900460ff16938c92849291849160029160018401908601808311610a6c57505050505081525050611e2d90919063ffffffff16565b1580610edf5750610edd88611ea7565b155b80610f7257506004808901546040516370a0823160e01b81526001600160a01b03909116916370a0823191610f1691339101612660565b60206040518083038186803b158015610f2e57600080fd5b505afa158015610f42573d6000803e3d6000fd5b505050506040513d601f19601f82011682018060405250810190610f6691906125fd565b610f708787611306565b115b60405180604001604052806002815260200161313360f01b81525090610dec5760405162461bcd60e51b815260040161019891906126f5565b60408051808201825260018152600760fb1b6020820152905162461bcd60e51b815261019891906004016126f5565b5050505050505050565b610fa081565b6040805180820190915260018152603160f81b6020820152876110205760405162461bcd60e51b815260040161019891906126f5565b506040805180820190915260018152603560f81b60208201528688111561105a5760405162461bcd60e51b815260040161019891906126f5565b506001600160a01b038816600090815260208690526040812061107c906112ce565b505050905080604051806040016040528060018152602001601960f91b815250906110ba5760405162461bcd60e51b815260040161019891906126f5565b50604051633985c10960e21b815273__$52a8a86ab43135662ff256bbc95497e8e3$__9063e617042490611100908c9033908d908c908c908c908c908c90600401612674565b60206040518083038186803b15801561111857600080fd5b505af415801561112c573d6000803e3d6000fd5b505050506040513d601f19601f820116820180604052508101906111509190612450565b604051806040016040528060018152602001601b60f91b815250906106b65760405162461bcd60e51b815260040161019891906126f5565b600061119387611ef4565b905080604051806040016040528060018152602001601960f91b815250906111ce5760405162461bcd60e51b815260040161019891906126f5565b506040805180820190915260018152603160f81b6020820152866112055760405162461bcd60e51b815260040161019891906126f5565b506000831180156112215750600185600281111561121f57fe5b145b8061124257506000821180156112425750600285600281111561124057fe5b145b60405180604001604052806002815260200161313560f01b8152509061127b5760405162461bcd60e51b815260040161019891906126f5565b50600019861415806112955750336001600160a01b038516145b60405180604001604052806002815260200161189b60f11b81525090610fda5760405162461bcd60e51b815260040161019891906126f5565b54600160381b811615159167020000000000000082161515916704000000000000008116151591670800000000000000909116151590565b60008282018381101561132b5760405162461bcd60e51b815260040161019890612754565b90505b92915050565b6000633b9aca0082810290839082041460405180604001604052806002815260200161068760f31b8152509061137d5760405162461bcd60e51b815260040161019891906126f5565b5090505b919050565b604080518082019091526002815261035360f41b6020820152600090826113c05760405162461bcd60e51b815260040161019891906126f5565b5060408051808201909152600280825261068760f31b60208301528304906b033b2e3c9fd0803ce800000082190485111561140e5760405162461bcd60e51b815260040161019891906126f5565b5082816b033b2e3c9fd0803ce80000008602018161142857fe5b04949350505050565b600082158061143e575081155b1561144b5750600061132e565b81611388198161145757fe5b0483111560405180604001604052806002815260200161068760f31b815250906114945760405162461bcd60e51b815260040161019891906126f5565b50506127109102611388010490565b60008060008060006114b3612284565b6114bc8a611f00565b156114da576000806000806000199550955095509550955050611d48565b600060e08201525b878160e001511015611c2c5760e08101516114fe908b90611f45565b61150757611c1c565b60e0810151600090815260208a81526040808320546001600160a01b03166101e0850181905283528d82529182902082516060810190935260238084529092611567929091906128929083013960048301546001600160a01b0316611eaf565b600480820154604080516358b50cef60e11b815290516001600160a01b039092169263b16a19de928282019260209290829003018186803b1580156115ab57600080fd5b505afa1580156115bf573d6000803e3d6000fd5b505050506040513d601f19601f820116820180604052508101906115e3919061231e565b6001600160a01b03166101e08301526115fb81611fb7565b5060808601525060c0840190815260a084019190915260408051808201909152601881527f6c69717569646174696f6e5468726573686f6c643a2025640000000000000000602082015290516116519190611d56565b6080820151600a0a60208301526101e082015160405163b3596f0760e01b81526001600160a01b038a169163b3596f079161168f9190600401612660565b60206040518083038186803b1580156116a757600080fd5b505afa1580156116bb573d6000803e3d6000fd5b505050506040513d601f19601f820116820180604052508101906116df91906125fd565b825260408051808201909152601d81527f766172732e63757272656e7452657365727665416464726573733a257300000060208201526101e08301516117259190611eaf565b61175f604051806040016040528060148152602001731c995cd95c9d99555b9a5d141c9a58d94e88095960621b8152508360000151611d56565b61177e6117798360e001518d611e2d90919063ffffffff16565b611fe2565b60c08201511580159061179c575060e082015161179c908c90611e2d565b156119d4578060040160009054906101000a90046001600160a01b03166001600160a01b03166370a082318e6040518263ffffffff1660e01b81526004016117e49190612660565b60206040518083038186803b1580156117fc57600080fd5b505afa158015611810573d6000803e3d6000fd5b505050506040513d601f19601f8201168201806040525081019061183491906125fd565b60408084019182528051808201909152601e81527f636f6d706f756e6465644c697175696469747942616c616e63653a20256400006020820152905161187a9190611d56565b60006118a5836020015161189f8560400151866000015161202890919063ffffffff16565b90612062565b90506118e66040518060400160405280601781526020017f6c697175696469747942616c616e63654554483a20256400000000000000000081525082611d56565b6101208301516118f69082611306565b610120840190815260408051808201909152601881527f746f74616c436f6c6c61746572616c496e4554483a20256400000000000000006020820152905161193e9190611d56565b6119646119588460a001518361202890919063ffffffff16565b61016085015190611306565b61016084015260c083015161198a9061197e908390612028565b61018085015190611306565b610180840190815260408051808201909152601b81527f6176674c69717569646174696f6e5468726573686f6c643a2025640000000000602082015290516119d29190611d56565b505b60e08201516119e4908c906120a4565b15611c1a578060050160009054906101000a90046001600160a01b03166001600160a01b03166370a082318e6040518263ffffffff1660e01b8152600401611a2c9190612660565b60206040518083038186803b158015611a4457600080fd5b505afa158015611a58573d6000803e3d6000fd5b505050506040513d601f19601f82011682018060405250810190611a7c91906125fd565b6060830190815260408051808201909152601b81527f636f6d706f756e646564426f72726f7742616c616e63653a202564000000000060208201529051611ac39190611d56565b611b648160060160009054906101000a90046001600160a01b03166001600160a01b03166370a082318f6040518263ffffffff1660e01b8152600401611b099190612660565b60206040518083038186803b158015611b2157600080fd5b505afa158015611b35573d6000803e3d6000fd5b505050506040513d601f19601f82011682018060405250810190611b5991906125fd565b606084015190611306565b6060830190815260408051808201909152601b81527f636f6d706f756e646564426f72726f7742616c616e63653a202564000000000060208201529051611bab9190611d56565b611bdd611bd1836020015161189f8560600151866000015161202890919063ffffffff16565b61014084015190611306565b61014083019081526040805180820190915260128152711d1bdd185b1119589d125b9155120e88095960721b60208201529051611c1a9190611d56565b505b60e08101805160010190526114e2565b600081610120015111611c40576000611c55565b610120810151610160820151611c5591612062565b610160820152610120810151611c6c576000611c81565b610120810151610180820151611c8191612062565b610180820190815260408051808201909152601b81527f6176674c69717569646174696f6e5468726573686f6c643a202564000000000060208201529051611cc99190611d56565b611ce3816101200151826101400151836101800151612102565b610100820190815260408051808201909152601081526f1a19585b1d1a119858dd1bdc8e88095960821b60208201529051611d1e9190611d56565b80610120015181610140015182610160015183610180015184610100015195509550955095509550505b965096509650965096915050565b611d9b8282604051602401611d6c929190612732565b60408051601f198184030181529190526020810180516001600160e01b03166309710a9d60e41b179052612130565b5050565b604080518082019091526002815261035360f41b602082015260009082611dd95760405162461bcd60e51b815260040161019891906126f5565b5060408051808201909152600280825261068760f31b6020830152830490612710821904851115611e1d5760405162461bcd60e51b815260040161019891906126f5565b5082816127108602018161142857fe5b6000610100821060405180604001604052806002815260200161373760f01b81525090611e6d5760405162461bcd60e51b815260040161019891906126f5565b5060006080830490506080830692508260020260010184600001518260028110611e9357fe5b6020020151901c6001161515949350505050565b5461ffff1690565b611d9b8282604051602401611ec5929190612708565b60408051601f198184030181529190526020810180516001600160e01b031663319af33360e01b179052612130565b54600160381b16151590565b6000805b600260ff82161015611f3c57825160ff821660028110611f2057fe5b602002015115611f34576000915050611381565b600101611f04565b50600192915050565b6000610100821060405180604001604052806002815260200161373760f01b81525090611f855760405162461bcd60e51b815260040161019891906126f5565b508251607f83169260809004906002808502919083908110611fa357fe5b6020020151901c6003161515949350505050565b5461ffff80821692601083901c821692602081901c831692603082901c60ff169260409290921c1690565b61202581604051602401611ff691906126ea565b60408051601f198184030181529190526020810180516001600160e01b03166332458eed60e01b179052612130565b50565b6000826120375750600061132e565b8282028284828161204457fe5b041461132b5760405162461bcd60e51b81526004016101989061278b565b600061132b83836040518060400160405280601a81526020017f536166654d6174683a206469766973696f6e206279207a65726f000000000000815250612151565b6000610100821060405180604001604052806002815260200161373760f01b815250906120e45760405162461bcd60e51b815260040161019891906126f5565b508251607f83169260809004906002808502919083908110611e9357fe5b6000826121125750600019612129565b612126836121208685611431565b90612188565b90505b9392505050565b80516a636f6e736f6c652e6c6f67602083016000808483855afa5050505050565b600081836121725760405162461bcd60e51b815260040161019891906126f5565b50600083858161217e57fe5b0495945050505050565b604080518082019091526002815261035360f41b6020820152600090826121c25760405162461bcd60e51b815260040161019891906126f5565b5060408051808201909152600280825261068760f31b6020830152830490670de0b6b3a764000082190485111561220c5760405162461bcd60e51b815260040161019891906126f5565b508281670de0b6b3a76400008602018161142857fe5b604051806101600160405280600081526020016000815260200160008152602001600081526020016000815260200160008152602001600081526020016000151581526020016000151581526020016000151581526020016000151581525090565b604051806102400160405280600081526020016000815260200160008152602001600081526020016000815260200160008152602001600081526020016000815260200160008152602001600081526020016000815260200160008152602001600081526020016000815260200160001515815260200160006001600160a01b031681526020016000151581526020016000151581525090565b60006020828403121561232f578081fd5b815161132b816127d5565b6000806000806000806000806000806000806101808d8f03121561235c578788fd5b8c35612367816127d5565b9b5060208d01359a5060408d013561237e816127d5565b995060608d0135985060808d0135975060a08d0135965060c08d0135955060e08d013594506101008d013593506101208d013592506101408d013591506101608d01356123ca816127d5565b809150509295989b509295989b509295989b565b600080600080600080600080610100898b0312156123fa578384fd5b8835612405816127d5565b97506020890135965060408901359550606089013594506080890135935060a0890135925060c0890135915060e089013561243f816127d5565b809150509295985092959890939650565b600060208284031215612461578081fd5b815161132b816127ea565b600080600080600080600080610100898b031215612488578384fd5b88359750602089013561249a816127d5565b965060408901356124aa816127ea565b9550606089013594506080890135935060a0890135925060c0890135915060e089013561243f816127d5565b600080600080600060a086880312156124ed578081fd5b8535945060208601356124ff816127d5565b9350604086013561250f816127d5565b9250606086013561251f816127d5565b9150608086013561252f816127d5565b809150509295509295909350565b600080600080600060a08688031215612554578283fd5b8535945060208601359350604086013592506060860135915060808601356003811061252f578182fd5b60008060408385031215612590578182fd5b50508035926020909101359150565b60008060008060008060c087890312156125b7578384fd5b86359550602087013594506040870135600381106125d3578485fd5b935060608701356125e3816127d5565b9598949750929560808101359460a0909101359350915050565b60006020828403121561260e578081fd5b5051919050565b60008151808452815b8181101561263a5760208185018101518683018201520161261e565b8181111561264b5782602083870101525b50601f01601f19169290920160200192915050565b6001600160a01b0391909116815260200190565b60006101208201905060018060a01b03808b1683526020818b1681850152896040850152886060850152608084018860005b60028110156126c3578154835291830191600191820191016126a6565b505050508560c08401528460e0840152808416610100840152509998505050505050505050565b901515815260200190565b60006020825261132b6020830184612615565b60006040825261271b6040830185612615565b905060018060a01b03831660208301529392505050565b6000604082526127456040830185612615565b90508260208301529392505050565b6020808252601b908201527f536166654d6174683a206164646974696f6e206f766572666c6f770000000000604082015260600190565b60208082526021908201527f536166654d6174683a206d756c7469706c69636174696f6e206f766572666c6f6040820152607760f81b606082015260800190565b90815260200190565b6001600160a01b038116811461202557600080fd5b801515811461202557600080fdfe76616c6964617465426f72726f773a6d61784c6f616e53697a65537461626c653a256476616c6964617465426f72726f77203a2075736572436f6c6c61746572616c42616c616e63654554483a256476616c6964617465426f72726f773a726573657276652e7661756c74416464726573733a257376616c6964617465426f72726f773a617661696c61626c654c69717569646974793a256463616c63756c617465557365724163636f756e74446174613a2061746f6b656e3a256476616c6964617465426f72726f77203a20616d6f756e744f66436f6c6c61746572616c4e65656465644554483a256476616c6964617465426f72726f77203a20616674657220616d6f756e744f66436f6c6c61746572616c4e65656465644554483a2564a2646970667358221220cddde61cca7b5fbcfcd426dff2ac29cf74c63c4da322f9687dd4fe6afea3a0e864736f6c634300060c0033",
  "linkReferences": {
    "contracts/protocol/libraries/logic/GenericLogic.sol": {
      "GenericLogic": [
        {
          "length": 20,
          "start": 1565
        },
        {
          "length": 20,
          "start": 4336
        }
      ]
    }
  },
  "deployedLinkReferences": {
    "contracts/protocol/libraries/logic/GenericLogic.sol": {
      "GenericLogic": [
        {
          "length": 20,
          "start": 1527
        },
        {
          "length": 20,
          "start": 4298
        }
      ]
    }
  }
}