{
  "_format": "hh-sol-artifact-1",
  "contractName": "EnzymeBridge",
  "sourceName": "contracts/protocol/lendingpool/EnzymeBridge.sol",
  "abi": [
    {
      "inputs": [
        {
          "internalType": "address",
          "name": "asset",
          "type": "address"
        },
        {
          "internalType": "uint256",
          "name": "amount",
          "type": "uint256"
        },
        {
          "internalType": "uint256",
          "name": "interestRateMode",
          "type": "uint256"
        },
        {
          "internalType": "address",
          "name": "user",
          "type": "address"
        },
        {
          "internalType": "uint256",
          "name": "reservesCount",
          "type": "uint256"
        }
      ],
      "name": "borrow",
      "outputs": [
        {
          "internalType": "address",
          "name": "",
          "type": "address"
        },
        {
          "internalType": "address",
          "name": "",
          "type": "address"
        }
      ],
      "stateMutability": "nonpayable",
      "type": "function"
    },
    {
      "inputs": [
        {
          "internalType": "address",
          "name": "_denominationAsset",
          "type": "address"
        }
      ],
      "name": "createNewFund",
      "outputs": [
        {
          "internalType": "address",
          "name": "",
          "type": "address"
        },
        {
          "internalType": "address",
          "name": "",
          "type": "address"
        }
      ],
      "stateMutability": "nonpayable",
      "type": "function"
    },
    {
      "inputs": [
        {
          "internalType": "address",
          "name": "owner",
          "type": "address"
        },
        {
          "internalType": "address",
          "name": "asset",
          "type": "address"
        },
        {
          "internalType": "uint256",
          "name": "amount",
          "type": "uint256"
        }
      ],
      "name": "deposit",
      "outputs": [
        {
          "internalType": "address",
          "name": "",
          "type": "address"
        },
        {
          "internalType": "address",
          "name": "",
          "type": "address"
        }
      ],
      "stateMutability": "nonpayable",
      "type": "function"
    },
    {
      "inputs": [
        {
          "internalType": "address",
          "name": "_asset",
          "type": "address"
        }
      ],
      "name": "getCommonComptroller",
      "outputs": [
        {
          "internalType": "address",
          "name": "",
          "type": "address"
        }
      ],
      "stateMutability": "nonpayable",
      "type": "function"
    },
    {
      "inputs": [
        {
          "internalType": "address",
          "name": "_asset",
          "type": "address"
        }
      ],
      "name": "getCommonVault",
      "outputs": [
        {
          "internalType": "address",
          "name": "",
          "type": "address"
        }
      ],
      "stateMutability": "nonpayable",
      "type": "function"
    },
    {
      "inputs": [
        {
          "internalType": "address",
          "name": "_user",
          "type": "address"
        }
      ],
      "name": "getMyComptroller",
      "outputs": [
        {
          "internalType": "address",
          "name": "",
          "type": "address"
        }
      ],
      "stateMutability": "nonpayable",
      "type": "function"
    },
    {
      "inputs": [
        {
          "internalType": "address",
          "name": "_user",
          "type": "address"
        }
      ],
      "name": "getMyVault",
      "outputs": [
        {
          "internalType": "address",
          "name": "",
          "type": "address"
        }
      ],
      "stateMutability": "nonpayable",
      "type": "function"
    },
    {
      "inputs": [
        {
          "internalType": "address",
          "name": "_user",
          "type": "address"
        },
        {
          "internalType": "address",
          "name": "_asset",
          "type": "address"
        }
      ],
      "name": "getUserComptroller",
      "outputs": [
        {
          "internalType": "address",
          "name": "",
          "type": "address"
        }
      ],
      "stateMutability": "nonpayable",
      "type": "function"
    },
    {
      "inputs": [
        {
          "internalType": "address",
          "name": "_user",
          "type": "address"
        },
        {
          "internalType": "address",
          "name": "_asset",
          "type": "address"
        }
      ],
      "name": "getUserVault",
      "outputs": [
        {
          "internalType": "address",
          "name": "",
          "type": "address"
        }
      ],
      "stateMutability": "nonpayable",
      "type": "function"
    },
    {
      "inputs": [
        {
          "internalType": "contract ILendingPoolAddressesProvider",
          "name": "provider",
          "type": "address"
        },
        {
          "internalType": "address",
          "name": "commonFundOwner",
          "type": "address"
        }
      ],
      "name": "initialize",
      "outputs": [],
      "stateMutability": "nonpayable",
      "type": "function"
    },
    {
      "inputs": [
        {
          "internalType": "address",
          "name": "_asset",
          "type": "address"
        }
      ],
      "name": "isCommonFundExist",
      "outputs": [
        {
          "internalType": "bool",
          "name": "",
          "type": "bool"
        }
      ],
      "stateMutability": "nonpayable",
      "type": "function"
    },
    {
      "inputs": [
        {
          "internalType": "address",
          "name": "_fundOwner",
          "type": "address"
        }
      ],
      "name": "isFundExistForUser",
      "outputs": [
        {
          "internalType": "bool",
          "name": "",
          "type": "bool"
        }
      ],
      "stateMutability": "nonpayable",
      "type": "function"
    },
    {
      "inputs": [
        {
          "internalType": "uint256",
          "name": "a",
          "type": "uint256"
        },
        {
          "internalType": "string",
          "name": "b",
          "type": "string"
        }
      ],
      "name": "test",
      "outputs": [
        {
          "internalType": "uint256",
          "name": "",
          "type": "uint256"
        },
        {
          "internalType": "string",
          "name": "",
          "type": "string"
        }
      ],
      "stateMutability": "nonpayable",
      "type": "function"
    },
    {
      "inputs": [],
      "name": "test2",
      "outputs": [],
      "stateMutability": "nonpayable",
      "type": "function"
    },
    {
      "inputs": [],
      "name": "test3",
      "outputs": [],
      "stateMutability": "nonpayable",
      "type": "function"
    },
    {
      "inputs": [],
      "name": "test4",
      "outputs": [],
      "stateMutability": "nonpayable",
      "type": "function"
    },
    {
      "inputs": [],
      "name": "test5",
      "outputs": [],
      "stateMutability": "nonpayable",
      "type": "function"
    }
  ],
  "bytecode": "0x6080604052600080546001600160a01b03199081169091556b033b2e3c9fd0803ce800001e6001556103e860028190556003805461ffff191690911762010000600160501b03191664278d00000017600160501b600160f01b0319169055600480548216905560058054821690556006805482169055600780548216905560088054909116905534801561009257600080fd5b50612c80806100a26000396000f3fe608060405234801561001057600080fd5b506004361061010b5760003560e01c80638340f549116100a257806393dcfaa81161007157806393dcfaa8146101fb5780639c4ace6c1461020e578063ad1c61fd14610221578063b860b95f14610242578063c60c6b89146102555761010b565b80638340f549146101ac57806383c1d2e5146101cd5780638f0d282d146101e05780638ffbf22f146101e85761010b565b80632a5bbd8e116100de5780632a5bbd8e1461016b578063485cc9551461017e57806349bd41e21461019157806366e41cb7146101a45761010b565b806307d56aea146101105780630a8e8e01146101395780631080ca2b146101435780631ad7be8214610163575b600080fd5b61012361011e36600461239a565b610268565b60405161013091906128e1565b60405180910390f35b610141610288565b005b61015661015136600461239a565b61036f565b6040516101309190612791565b61014161038d565b61015661017936600461239a565b6105a7565b61014161018c3660046125f4565b6105c5565b61015661019f36600461239a565b610b2e565b610141610b4c565b6101bf6101ba366004612438565b610bd7565b6040516101309291906127a5565b6101566101db36600461239a565b610def565b610141610e0d565b6101566101f63660046123d2565b610e28565b6101bf6102093660046124ae565b610e7c565b6101bf61021c36600461239a565b611216565b61023461022f36600461269f565b61136a565b6040516101309291906129be565b61012361025036600461239a565b611438565b6101566102633660046123d2565b611458565b6001600160a01b039081166000908152600a602052604090205416151590565b6003546000546060916102b99161ffff8216916201000090046001600160401b0316906001600160a01b03166114aa565b905060008060006102c984611571565b9250925092506103026040518060400160405280600d81526020016c191958dbd919590e984e880959609a1b8152508461ffff16611597565b61033a6040518060400160405280600d81526020016c191958dbd919590e984e880959609a1b815250836001600160401b0316611597565b6103696040518060400160405280600d81526020016c6465636f6465643a623a20257360981b815250826115e0565b50505050565b6001600160a01b039081166000908152600c60205260409020541690565b6060610397611625565b90506103a281611733565b6103aa61227e565b6103b261229c565b6103bb83611779565b915091506103e66040518060400160405280600681526020016519191919191960d21b8152506117a6565b60005b60038110156105905761042e6040518060400160405280600a815260200169616464726573733a257360b01b81525084836003811061042457fe5b60200201516115e0565b806104b35760008061044f84846003811061044557fe5b60200201516117e9565b9150915061047e604051806040016040528060098152602001681c985d19480e88095960ba1b81525083611597565b6104ac6040518060400160405280600c81526020016b1859191c995cdcc80e88095960a21b815250826115e0565b5050610588565b80600114156104ce5760008061044f84846003811061044557fe5b60008060006104ec8585600381106104e257fe5b6020020151611571565b925092509250610521604051806040016040528060098152602001681c985d19480e88095960ba1b8152508461ffff16611597565b61054f6040518060400160405280600c81526020016b1859191c995cdcc80e88095960a21b815250826115e0565b6105846040518060400160405280600a8152602001691c195c9a5bd90e88095960b21b815250836001600160401b0316611597565b5050505b6001016103e9565b506105a26422a927a62960d91b611800565b505050565b6001600160a01b039081166000908152600d60205260409020541690565b600980546001600160a01b0319166001600160a01b0384811691909117918290556040516321f8a72160e01b81526e13585b9859d95b595b9d1199595259608a1b92909116906321f8a7219061061f908490600401612788565b60206040518083038186803b15801561063757600080fd5b505afa15801561064b573d6000803e3d6000fd5b505050506040513d601f19601f8201168201806040525081019061066f91906123b6565b6003600a6101000a8154816001600160a01b0302191690836001600160a01b031602179055506106dd604051806040016040528060118152602001705f6d616e466565416464726573733a257360781b8152506003600a9054906101000a90046001600160a01b03166115e0565b506009546040516321f8a72160e01b81527f456e7472616e6365526174654469726563744665654964000000000000000000916001600160a01b0316906321f8a7219061072e908490600401612788565b60206040518083038186803b15801561074657600080fd5b505afa15801561075a573d6000803e3d6000fd5b505050506040513d601f19601f8201168201806040525081019061077e91906123b6565b600480546001600160a01b0319166001600160a01b0392831617908190556040805180820190915260168152755f656e7472616e6365466565416464726573733a257360501b60208201526107d5929091166115e0565b506009546040516321f8a72160e01b81526f14195c999bdc9b585b98d9519959525960821b916001600160a01b0316906321f8a72190610819908490600401612788565b60206040518083038186803b15801561083157600080fd5b505afa158015610845573d6000803e3d6000fd5b505050506040513d601f19601f8201168201806040525081019061086991906123b6565b600580546001600160a01b0319166001600160a01b0392831617908190556040805180820190915260128152715f70657266466565416464726573733a257360701b60208201526108bc929091166115e0565b506009546040516321f8a72160e01b81526d119d5b9911195c1b1bde595c925960921b916001600160a01b0316906321f8a721906108fe908490600401612788565b60206040518083038186803b15801561091657600080fd5b505afa15801561092a573d6000803e3d6000fd5b505050506040513d601f19601f8201168201806040525081019061094e91906123b6565b600880546001600160a01b0319166001600160a01b03928316179081905560408051808201909152601081526f5f66756e644465706c6f7965723a257360801b602082015261099f929091166115e0565b506009546040516321f8a72160e01b81526d115b9e9e5b59509c9a5919d9525960921b916000916001600160a01b03909116906321f8a721906109e6908590600401612788565b60206040518083038186803b1580156109fe57600080fd5b505afa158015610a12573d6000803e3d6000fd5b505050506040513d601f19601f82011682018060405250810190610a3691906123b6565b9050610a7060405180604001604052806016815260200175656e7a796d65427269646765416464726573733a257360501b815250826115e0565b82600660006101000a8154816001600160a01b0302191690836001600160a01b03160217905550836001600160a01b0316630261bf8b6040518163ffffffff1660e01b815260040160206040518083038186803b158015610ad057600080fd5b505afa158015610ae4573d6000803e3d6000fd5b505050506040513d601f19601f82011682018060405250810190610b0891906123b6565b600780546001600160a01b0319166001600160a01b039290921691909117905550505050565b6001600160a01b039081166000908152600b60205260409020541690565b600154600054606091610b67916001600160a01b0316611853565b9050600080610b75836117e9565b91509150610ba86040518060400160405280600d81526020016c191958dbd919590e984e880959609a1b81525083611597565b6105a26040518060400160405280600d81526020016c6465636f6465643a623a20257360981b815250826115e0565b6000806000806000610be888610268565b9050610c2160405180604001604052806016815260200175627269646765206465706f7369742069734578696e7360501b8152506117a6565b610c2a816118dd565b8015610c62576001600160a01b038089166000908152600b6020908152604080832054600a9092529091205482169450169150610d81565b6000610c6d88611438565b9050610cad6040518060400160405280602081526020017f627269646765206465706f736974206973436f6d6d6f6e46756e6445786973748152506117a6565b610cb6816118dd565b80610d5257610cdc604051806060016040528060358152602001612b6c603591396117a6565b600080610ce88a611216565b91509150610d0d604051806060016040528060348152602001612b38603491396117a6565b6001600160a01b03808b166000908152600d6020908152604080832080549685166001600160a01b0319978816179055600c9091529020805492909116919092161790555b506001600160a01b038088166000908152600d6020908152604080832054600c90925290912054821694501691505b610dc06040518060400160405280601c81526020017f456e7a796d65204272696467653a7461726765745661756c743a257300000000815250846115e0565b610de2604051806060016040528060228152602001612a5b60229139836115e0565b5090969095509350505050565b6001600160a01b039081166000908152600a60205260409020541690565b600254600054606091610b67916001600160a01b0316611853565b6000610e3383610268565b15610e5957506001600160a01b038083166000908152600a602052604090205416610e76565b506001600160a01b038082166000908152600c6020526040902054165b92915050565b600080600080610eb760405180604001604052806014815260200173109c9a5919d948189bdc9c9bddc818d85b1b195960621b8152506117a6565b6000610ec287610268565b90508061102a57610f076040518060400160405280602081526020017f426f72726f773a2055736572207661756c7420646f65736e27742065786973748152506117a6565b610f108a611216565b60408051808201909152601c81527f426f72726f773a206765742063726561746564207661756c743a25730000000060208201529194509250610f5390836115e0565b610f75604051806060016040528060228152602001612bc260229139846115e0565b6001600160a01b038781166000908152600a6020908152604080832080546001600160a01b031990811688871617909155600b8352928190208054909316938716939093179091558151606081019092526025808352610fdc9291612ae2908301396117a6565b610fe7878784611920565b6110256040518060400160405280601f81526020017f426f72726f773a206166746572206d6f76696e67207661756c742076616c75008152506117a6565b61108e565b61106060405180604001604052806015815260200174155cd95c881d985d5b1d08191bd95cc8195e1a5cdd605a1b8152506117a6565b6001600160a01b038088166000908152600a6020908152604080832054600b90925290912054821694501691505b6001600160a01b03808b166000908152600c60209081526040918290205482516060810190935260238084529316926110ce9291612a7d908301396117a6565b61110d6040518060400160405280601d81526020017f507269766174652066756e642068617320666f722061737365743a25730000008152508c6115e0565b61114c6040518060400160405280601f81526020017f507269766174652066756e6420686173207661756c742061737365743a257300815250846115e0565b6040516370a0823160e01b81526000906001600160a01b038d16906370a082319061117b908790600401612791565b60206040518083038186803b15801561119357600080fd5b505afa1580156111a7573d6000803e3d6000fd5b505050506040513d601f19601f820116820180604052508101906111cb9190612663565b9050611204604051806040016040528060158152602001740283934bb30ba3290333ab732103430b99012b2101605d1b81525082611597565b50919a92995091975050505050505050565b6000806112476040518060400160405280600d81526020016c18dc99585d1953995dd19d5b99609a1b8152506117a6565b60408051808201909152601081526f151154d517d4d510551250d7d195539160821b60208201526060611278611625565b60408051600180825281830190925291925060609190602082018180368337019050509050600060f81b816000815181106112af57fe5b60200101906001600160f81b031916908160001a905350600854600654604051633c2ed9ab60e21b815260009283926001600160a01b039182169263f0bb66ac9261130a92169089908d90612710908b908b906004016127e3565b6040805180830381600087803b15801561132357600080fd5b505af1158015611337573d6000803e3d6000fd5b505050506040513d601f19601f8201168201806040525081019061135b919061240a565b90975095505050505050915091565b60006060806113af8686868080601f01602080910402602001604051908101604052809392919081815260200183838082843760009201919091525061215c92505050565b9050600060606113be83612204565b915091506113f16040518060400160405280600d81526020016c191958dbd919590e984e880959609a1b81525083611597565b6114206040518060400160405280600d81526020016c6465636f6465643a623a20257360981b8152508261221c565b61142983612204565b94509450505050935093915050565b6001600160a01b039081166000908152600c602052604090205416151590565b600061146383610268565b1561148957506001600160a01b038083166000908152600b602052604090205416610e76565b506001600160a01b038082166000908152600d602052604090205416610e76565b6060808484846040516020016114c293929190612979565b60408051601f19818403018152828201909152600b82526a1a5b9c1d5d0e984e88095960aa1b602083015291506114fd9061ffff8716611597565b6115336040518060400160405280600b81526020016a1a5b9c1d5d0e98ce88095960aa1b815250856001600160401b0316611597565b6115606040518060400160405280600b81526020016a696e7075743a623a20257360a81b815250846115e0565b61156981611733565b949350505050565b60008060008380602001905181019061158a9190612606565b9250925092509193909250565b6115dc82826040516024016115ad929190612957565b60408051601f198184030181529190526020810180516001600160e01b03166309710a9d60e41b17905261225d565b5050565b6115dc82826040516024016115f69291906128ff565b60408051601f198184030181529190526020810180516001600160e01b031663319af33360e01b17905261225d565b6060806116496001546003600a9054906101000a90046001600160a01b0316611853565b60025460045491925060609161166891906001600160a01b0316611853565b60035460055491925060609161169d9161ffff811691620100009091046001600160401b0316906001600160a01b03166114aa565b90506116a761227e565b50604080516060810182526003546001600160a01b03600160501b909104811682526004548116602083015260055416918101919091526116e661229c565b604051806060016040528086815260200185815260200184815250905060608282604051602001611718929190612860565b60408051601f19818403018152919052965050505050505090565b6117768160405160240161174791906128ec565b60408051601f198184030181529190526020810180516001600160e01b03166305f3bfab60e11b17905261225d565b50565b61178161227e565b61178961229c565b8280602001905181019061179d91906124ff565b91509150915091565b611776816040516024016117ba91906128ec565b60408051601f198184030181529190526020810180516001600160e01b031663104c13eb60e21b17905261225d565b6000808280602001905181019061179d919061267b565b61182b6040518060400160405280600a8152602001697365744164647265737360b01b8152506117a6565b6117768160405160200161183f9190612788565b6040516020818303038152906040526117a6565b60608083836040516020016118699291906129a7565b60408051601f19818403018152828201909152600b82526a1a5b9c1d5d0e984e88095960aa1b602083015291506118a09085611597565b6118cd6040518060400160405280600b81526020016a696e7075743a623a20257360a81b815250846115e0565b6118d681611733565b9392505050565b611776816040516024016118f191906128e1565b60408051601f198184030181529190526020810180516001600160e01b03166332458eed60e01b17905261225d565b60075460405163c526620560e01b81526001600160a01b039091169063c526620590611950908690600401612791565b602060405180830381600087803b15801561196a57600080fd5b505af115801561197e573d6000803e3d6000fd5b505050506040513d601f19601f820116820180604052508101906119a291906125a0565b156119de576119d9604051806040016040528060118152602001705573657220636f6e66696720656d70747960781b8152506117a6565b6105a2565b60005b828110156103695760075460405163365270e560e11b815260009182916001600160a01b0390911690636ca4e1ca90611a209089908790600401612847565b6040805180830381600087803b158015611a3957600080fd5b505af1158015611a4d573d6000803e3d6000fd5b505050506040513d601f19601f82011682018060405250810190611a7191906125c0565b9150915081611aa257611a9b604051806060016040528060248152602001612c27602491396117a6565b5050612154565b611ac4604051806060016040528060318152602001612b076031913984611597565b60075460405163d1c498fb60e01b8152600091829182916001600160a01b03169063d1c498fb90611af9908990600401612788565b606060405180830381600087803b158015611b1357600080fd5b505af1158015611b27573d6000803e3d6000fd5b505050506040513d601f19601f82011682018060405250810190611b4b9190612478565b9250925092506000836001600160a01b031663b16a19de6040518163ffffffff1660e01b815260040160206040518083038186803b158015611b8c57600080fd5b505afa158015611ba0573d6000803e3d6000fd5b505050506040513d601f19601f82011682018060405250810190611bc491906123b6565b6001600160a01b038082166000908152600c6020908152604091829020548251808401909352601883527f6c69717569646174696f6e5468726573686f6c643a202564000000000000000091830191909152929350911690611c269085611597565b611c2f866118dd565b611c51604051806080016040528060438152602001612be460439139866115e0565b611c73604051806080016040528060428152602001612aa060429139826115e0565b8315801590611c7f5750855b1561214c576040516370a0823160e01b81526000906001600160a01b038716906370a0823190611cb3908f90600401612791565b60206040518083038186803b158015611ccb57600080fd5b505afa158015611cdf573d6000803e3d6000fd5b505050506040513d601f19601f82011682018060405250810190611d039190612663565b9050611d3d6040518060400160405280601681526020017502337b9103a37b5b2b71030b2323932b9b9901012b9960551b815250876115e0565b611d756040518060400160405280601681526020017502337b9103b30bab63a1030b2323932b9b9901012b9960551b815250836115e0565b611da960405180604001604052806012815260200171576520686176652025642062616c616e636560701b81525082611597565b801561214a57611dee6040518060400160405280601f81526020017f546f6b656e206265696e67207472616e736665727265642066726f6d20257300815250836115e0565b611e10604051806060016040528060218152602001612ba160219139846115e0565b6040516370a0823160e01b81526001600160a01b038416906370a0823190611e3c908590600401612791565b60206040518083038186803b158015611e5457600080fd5b505afa158015611e68573d6000803e3d6000fd5b505050506040513d601f19601f82011682018060405250810190611e8c9190612663565b9050611ec46040518060400160405280601481526020017302ab9b2b9103430b9903132b337b9329012b210160651b81525082611597565b6040516327783b1760e11b81526001600160a01b038b1690634ef0762e90611ef0908690600401612791565b600060405180830381600087803b158015611f0a57600080fd5b505af1158015611f1e573d6000803e3d6000fd5b5050604051634e30687b60e11b81526001600160a01b0385169250639c60d0f69150611f529086908e9086906004016127bf565b602060405180830381600087803b158015611f6c57600080fd5b505af1158015611f80573d6000803e3d6000fd5b505050506040513d601f19601f82011682018060405250810190611fa49190612663565b50611fe46040518060400160405280601781526020017f546f6b656e207472616e7366657272656420746f2025730000000000000000008152508b6115e0565b6040516370a0823160e01b81526001600160a01b038416906370a0823190612010908590600401612791565b60206040518083038186803b15801561202857600080fd5b505afa15801561203c573d6000803e3d6000fd5b505050506040513d601f19601f820116820180604052508101906120609190612663565b90506120956040518060400160405280601181526020017002ab9b2b9103430b21012b2103632b33a1607d1b81525082611597565b6040516370a0823160e01b81526001600160a01b038416906370a08231906120c1908d90600401612791565b60206040518083038186803b1580156120d957600080fd5b505afa1580156120ed573d6000803e3d6000fd5b505050506040513d601f19601f820116820180604052508101906121119190612663565b905061214a6040518060400160405280601581526020017402732bb902ab9b2b9103430b9903737bb901012b21605d1b81525082611597565b505b505050505050505b6001016119e1565b60608083836040516020016121729291906129be565b60408051601f19818403018152828201909152600b82526a1a5b9c1d5d0e984e88095960aa1b602083015291506121a99085611597565b6121d66040518060400160405280600b81526020016a696e7075743a623a20257360a81b8152508461221c565b6118d66040518060400160405280600c81526020016b6f75747075743a613a20257360a01b8152508261221c565b600060608280602001905181019061179d9190612715565b6115dc8282604051602401612232929190612929565b60408051601f198184030181529190526020810180516001600160e01b0316634b5c427760e01b1790525b80516a636f6e736f6c652e6c6f67602083016000808483855afa5050505050565b60405180606001604052806003906020820280368337509192915050565b60405180606001604052806003905b60608152602001906001900390816122ab5790505090565b8051610e7681612a45565b600082601f8301126122de578081fd5b6122e860606129d7565b9050808260005b600381101561231a576123058683518701612333565b835260209283019291909101906001016122ef565b50505092915050565b80518015158114610e7657600080fd5b600082601f830112612343578081fd5b81516001600160401b03811115612358578182fd5b61236b601f8201601f19166020016129d7565b915080825283602082850101111561238257600080fd5b612393816020840160208601612a19565b5092915050565b6000602082840312156123ab578081fd5b81356118d681612a45565b6000602082840312156123c7578081fd5b81516118d681612a45565b600080604083850312156123e4578081fd5b82356123ef81612a45565b915060208301356123ff81612a45565b809150509250929050565b6000806040838503121561241c578182fd5b825161242781612a45565b60208401519092506123ff81612a45565b60008060006060848603121561244c578081fd5b833561245781612a45565b9250602084013561246781612a45565b929592945050506040919091013590565b60008060006060848603121561248c578283fd5b835161249781612a45565b602085015160409095015190969495509392505050565b600080600080600060a086880312156124c5578081fd5b85356124d081612a45565b9450602086013593506040860135925060608601356124ee81612a45565b949793965091946080013592915050565b60008060808385031215612511578182fd5b83601f84011261251f578182fd5b600361253261252d826129fd565b6129d7565b80856060870188811115612544578687fd5b865b8581101561256d576125588a846122c3565b85526020948501949290920191600101612546565b505191955090925050506001600160401b0381111561258a578182fd5b612596858286016122ce565b9150509250929050565b6000602082840312156125b1578081fd5b815180151581146118d6578182fd5b600080604083850312156125d2578182fd5b6125dc8484612323565b91506125eb8460208501612323565b90509250929050565b600080604083850312156123e4578182fd5b60008060006060848603121561261a578081fd5b835161ffff8116811461262b578182fd5b60208501519093506001600160401b0381168114612647578182fd5b604085015190925061265881612a45565b809150509250925092565b600060208284031215612674578081fd5b5051919050565b6000806040838503121561268d578182fd5b8251915060208301516123ff81612a45565b6000806000604084860312156126b3578081fd5b8335925060208401356001600160401b03808211156126d0578283fd5b818601915086601f8301126126e3578283fd5b8135818111156126f1578384fd5b876020828501011115612702578384fd5b6020830194508093505050509250925092565b60008060408385031215612727578182fd5b8251915060208301516001600160401b03811115612743578182fd5b61259685828601612333565b6001600160a01b03169052565b60008151808452612774816020860160208601612a19565b601f01601f19169290920160200192915050565b90815260200190565b6001600160a01b0391909116815260200190565b6001600160a01b0392831681529116602082015260400190565b6001600160a01b039384168152919092166020820152604081019190915260600190565b600060018060a01b03808916835260c0602084015261280560c084018961275c565b81881660408501528660608501528381036080850152612825818761275c565b91505082810360a084015261283a818561275c565b9998505050505050505050565b6001600160a01b03929092168252602082015260400190565b6000608082018285835b60038110156128915761287e83835161274f565b602092830192919091019060010161286a565b5050608060608501525060e083019084835b60038110156128d557607f198685030183526128c084835161275c565b935060209283019291909101906001016128a3565b50919695505050505050565b901515815260200190565b6000602082526118d6602083018461275c565b600060408252612912604083018561275c565b905060018060a01b03831660208301529392505050565b60006040825261293c604083018561275c565b828103602084015261294e818561275c565b95945050505050565b60006040825261296a604083018561275c565b90508260208301529392505050565b61ffff9390931683526001600160401b039190911660208301526001600160a01b0316604082015260600190565b9182526001600160a01b0316602082015260400190565b600083825260406020830152611569604083018461275c565b6040518181016001600160401b03811182821017156129f557600080fd5b604052919050565b60006001600160401b03821115612a12578081fd5b5060200290565b60005b83811015612a34578181015183820152602001612a1c565b838111156103695750506000910152565b6001600160a01b038116811461177657600080fdfe456e7a796d65204272696467653a746172676574436f6d7074726f6c6c65723a25734265666f7265206d6f76696e6720746f6b656e20746f20707269766174652066756e646d6f766555736572546f6b656e73496e436f6d6d6f6e46756e64546f507269766174653a6765745265736572766544617461466f72557365723a7661756c743a25734265666f7265206d6f76696e672066756e64732066726f6d20636f6d6d6f6e2066756e64736d6f766555736572546f6b656e73496e436f6d6d6f6e46756e64546f5072697661746520496e7370656374696e673a2564627269646765206465706f736974206973436f6d6d6f6e46756e644578697374206166746572206372656174654e657746756e64627269646765206465706f736974206973436f6d6d6f6e46756e644578697374206265666f7265206372656174654e657746756e64546f6b656e20202573206265696e67207472616e736665727265642066726f6d20426f72726f773a20676574206372656174656420636f6d7074726f6c6c65723a25736d6f766555736572546f6b656e73496e436f6d6d6f6e46756e64546f507269766174653a6765745265736572766544617461466f72557365723a61746f6b656e3a257369735573696e674173436f6c6c61746572616c4f72426f72726f77696e672077726f6e67a26469706673582212201d2b785af9c6cd6b13987516bccdbab8e582e48459e5df63e84ca5f00a626a2464736f6c634300060c0033",
  "linkReferences": {},
  "deployedLinkReferences": {}
}